:100000000C94EC040C9409050C9409050C94090556
:100010000C9409050C9409050C9409050C94090528
:100020000C9409050C9409050C94C02C0C94922D89
:100030000C9403230C9409050C9409050C940905F0
:100040000C9409050C9409050C9409050C940905F8
:100050000C9409050C946B230C9409050C94090568
:100060000C9409050C9409050C9409050C940905D8
:100070000C9409050C9409050C9409050C940905C8
:100080000C9409050C9409050C9409050C940905B8
:100090000C9409050C9409050C9409050C940905A8
:1000A0000C9409050C9409050C9409059B059E0503
:1000B000A105A405A705A905AC05CA07CF07D9075F
:1000C000CD07D207D707D50797089908A4089B083A
:1000D0009D089F08A108A308A608A808AA08B508B3
:1000E000AC08AE08B008B208B408B708A218A21845
:1000F000DC18DC18111931199E1AFD1A7319FD1A32
:10010000231A231A961AFD1AFD1AF81A301A301AF1
:10011000301A301A301A301A301A301A301A301A8F
:10012000301A301A301A301A301A301A421A4F1A4E
:10013000561A5D1A671A8C1B8C1B9E1B9E1B951BE7
:100140009E1B9E1B9E1B8C1B8C1B9A1B9E1B9E1B0F
:100150009A1BFF2D262E182F262E182F722E952E25
:10016000182FEB2EFA2E07634236B79BD8A71A3901
:10017000685618AEBAAB558C1D3CB7CC5763BD6DF5
:10018000EDFD753EF6177231BF000000803F05A8F7
:100190004CCDB2D44EB93836A9020C50B9918688EC
:1001A000083CA6AAAA2ABE000000803F6572676FBD
:1001B000646F785F657A2F313430653464666134FA
:1001C0003036613033326438383337204020302EB7
:1001D000352E3236342D362D67376339643561005C
:1001E0006572676F646F785F657A2F31343065347C
:1001F00064666134303661303332643838333720E6
:100200004020302E352E3236342D362D6737633967
:10021000643561000000F0A135002B002968E10081
:10022000035300001E00140004001D000251E000F2
:100230001F001A0016001B0001514C00200008008E
:100240000700060005512A00210015000900194485
:100250000100BE5C220017000A0005000000BB5C24
:10026000C25C2D00000055640000BD5CC15C35021D
:10027000000000740000A90023001C000B00110006
:100280000000A800240018000D0010005100AA0072
:1002900025000C000E00360052002C002600120033
:1002A0000F003700025128002700130033003800E8
:1002B0005000E300390031003471E5004F000000C8
:1002C0000100010001000100010000000100010027
:1002D0000100010001000100010001000100010016
:1002E00001000100010001000100FD000100F50016
:1002F000010001000100FF000100010001000100F8
:100300000100FE00000001000100010000000100EA
:100310000000010001004B0000004E000000010041
:100320000100FB00F2005000000001000100F90094
:10033000F1005100010001000100FA00F00052003C
:100340000100F4000100FC00F3004F000100010077
:100350000100010001000100010001000100010095
:100360000100010001000000010001000100010086
:10037000010000006B00450041003D00010001004C
:100380006A00440040003C00010001006900430095
:100390003F003B0001000100680042003E003A00BF
:1003A0000100010001000100010001000000010046
:1003B0000100010000000100000001000100010037
:1003C0000000010000000100010020021F022102C4
:1003D0000000010001002F0026022F020100010091
:1003E0000100300027023002010001000100240258
:1003F0001E022E0201000100010031022E002D001C
:1004000001000100010001000100010001000000E5
:1004100001000100010001000100000001000100D5
:1004200054000100010001000100560055000100C8
:1004300001004C00010026025600010001002A00C4
:100440000100270257000100010001000100010026
:100450000100010000000100010001000000010096
:100460000000010001000100000001000000010087
:100470000100010001000100000001000100240052
:1004800021001E00370001000100250022001F008E
:1004900027002B0001002600230020002102580025
:1004A0000100010001000100010001000100010044
:1004B0000100010001000000010001000100010035
:1004C0000100000001000100010001000100010025
:1004D0000100010001000100010001000100010014
:1004E0000100010001000100010001000100010004
:1004F00001000100010001000100010000000100F5
:1005000001000100000001000000010001000100E5
:10051000000001000000010001000B030B0142007C
:100520000000010001000D030D0141000100010068
:1005300001000E030E0140000100010001000F0345
:100540000F01430001000100010001000100010052
:100550000100010001000100010001000100000094
:100560000100010001000100010000000100010084
:100570000100010001000100010001000100010073
:100580000100010001000100010001000100010063
:100590000100010001000100010001000100010053
:1005A0000100010000000100010001000000010045
:1005B0000000010001000100000001000000010036
:1005C0000100180550050D05000001000100070598
:1005D00051050805500D010001000A0552051705D7
:1005E0004F0D010001000C054F050E0550010100E3
:1005F00001005201060551014F01010001002A05C9
:1006000028050100010000000000000000000000BB
:100610002A2B28000000000000000000000000005D
:1006200000000029000000002C1E34202122243468
:100630002627252E362D3738271E1F20212223243A
:1006400025263333362E37381F0405060708090AD6
:100650000B0C0D0E0F101112131415161718191A72
:100660001B1C1D2F3130232D350405060708090AF0
:100670000B0C0D0E0F101112131415161718191A52
:100680001B1C1D2F3130354C000000000000000005
:10069000000000000000000000000000000000005A
:1006A0000000000000000000000101010101010044
:1006B0000101010100000000000000000000000036
:1006C000000001000100010101010101010101011E
:1006D000010101010101010101010101010101010A
:1006E0000101010000000101000000000000000005
:1006F00000000000000000000000000000000000FA
:1007000000000001010101006801F000B400780060
:100710005A007F3F1F643214643214783C1E1E144A
:100720000A050000000000010101010101010101B1
:100730000202020202020202020303030303030392
:10074000030404040404040505050505060606065D
:100750000607070707080808080909090A0A0A0A14
:100760000B0B0B0C0C0C0D0D0D0E0E0F0F0F1010B4
:100770001111111212131314141515161617171838
:100780001819191A1A1B1C1C1D1D1E1F1F202021A1
:1007900022222324252526272728292A2B2B2C2DE6
:1007A0002E2F2F30313233343536363738393A3B05
:1007B0003C3D3E3F4041424344464748494A4B4CFA
:1007C0004D4F50515253555657585A5B5C5E5F60BF
:1007D0006263646667696A6C6D6E70717374767853
:1007E000797B7C7E8081838486888A8B8D8F9192B1
:1007F0009496989A9B9D9FA1A3A5A7A9ABADAFB1D5
:10080000B3B5B7B9BBBDBFC1C4C6C8CACCCFD1D3BD
:10081000D6D8DADCDFE1E4E6E8EBEDF0F2F5F7FA62
:10082000FCFF04033000000016034500720067005F
:100830006F0044006F007800200045005A0000005F
:1008400016034500720067006F0044006F007800D7
:10085000200045005A0000000403090409026D004D
:10086000040100A0FA0904000001030101000921AC
:10087000110100012240000705810308000A090454
:1008800001000103010200092111010001224D00B4
:100890000705820308000A090402000103000000A2
:1008A0000921110100012236000705830308000A0F
:1008B00009040300010300000009211101000122C5
:1008C0003900070584032000011201100100000017
:1008D00008EDFE071301000102030105010906A14D
:1008E00001050719E029E715002501950875018123
:1008F00002050819012905950575019102950175F3
:100900000391010507190029F71500250195F875D0
:10091000018102C005010980A1018502160100269E
:1009200003001A81002A8300751095018100C0051B
:100930000C0901A1018503160100269C021A010081
:100940002A9C02751095018100C005010902A101D0
:100950000901A100050919012905150025019505C1
:100960007501810295017503810105010930093185
:100970001581257F95027508810609381581257F27
:10098000950175088106050C0A38021581257F95A9
:100990000175088106C0C005010906A101050719F6
:1009A000E029E7150025019508750181029501757B
:1009B0000881010508190129059505750191029520
:1009C00001750391010507190029FF150026FF0095
:1009D000950675088100C00011241FBECFEFDAE034
:1009E000DEBFCDBF11E0A0E0B1E0EAE1F6E602C073
:1009F00005900D92AC3DB107D9F723E0ACEDB1E025
:100A000001C01D92AB3BB207E1F70E94E5290C94AF
:100A10000B330C9400001092B9008AE08093B80068
:100A2000089594EA9093BC009091BC0097FFFCCF8E
:100A30009091B900987F983021F0903111F081E0C9
:100A400008958093BB0084E88093BC008091BC0033
:100A500087FFFCCF8091B900887F883111F0803406
:100A600071F780E0089584E98093BC008091BC0018
:100A700084FDFCCF08958093BB0084E88093BC0084
:100A80008091BC0087FFFCCF9091B900987F81E0F6
:100A9000983209F480E0089584E88093BC00809146
:100AA000BC0087FFFCCF8091BB00089580B38C70A1
:100AB00080BB81B3836F81BB089584B1807F84B98B
:100AC00085B1807F85B98AB1837F8AB98BB1837FF5
:100AD0008BB93E9846980895CF93E82F873008F554
:100AE0008091000181113AC0CE2F80E40E9411054F
:100AF00080930001811112C082E10E943B05809326
:100B0000000181110BC081E090E001C0880FCA95FF
:100B1000EAF780950E943B0580930001CF910C94E9
:100B2000330590E0FC013797E730F105B8F4EA5A55
:100B3000FF4F0C94BD32209A289810C0219A299812
:100B40000DC0229A2A980AC0239A2B9807C0529A5D
:100B500001C0539A5B9802C03E9A4698CF9108957F
:100B6000CF93873018F580910001811128C080E46F
:100B70000E94110580930001882311F0C0E012C08B
:100B800083E10E943B05809300018111F7CF81E44E
:100B90000E941105809300018111F0CF0E944C0545
:100BA000C82FC0950E9433058C2F0AC09FB18FB10A
:100BB000807F869586959370892B809501C080E013
:100BC000CF91089508950C94E2050E942F07809319
:100BD00000010E945D050E9456052DED31E0E1E324
:100BE000F2E04EE04E0F119280E090E0D901A80FA4
:100BF000B91F1C92019686309105C1F72A5F3F4FBD
:100C00004E13F1CF0C94090B0E942F078093000123
:100C10000E945D050E945605E1E3F2E08EE08E0F32
:100C200011928E13FDCF089526E0829FC0011124FA
:100C3000FC01E352FE4F20E030E080E041E050E074
:100C40009081992319F09150908307C0BA01022E28
:100C500001C0660F0A94EAF7862B2F5F3F4F31964B
:100C60002630310569F7089596E0699FB001112497
:100C700020E030E090E04FE0FC01022E02C0F5954C
:100C8000E7950A94E2F7E0FF06C0F901E60FF71FC7
:100C9000E352FE4F40832F5F3F4F2630310561F70F
:100CA0000895CF92DF92EF92FF920F931F93CF930D
:100CB000DF9380910001882379F08091DC018F5FC0
:100CC0008093DC01811108C00E942F0780930001EE
:100CD000811102C00E94C10681E3C82E82E0D82E95
:100CE00098E3E92E92E0F92EC0E08C2F0E946C056B
:100CF00007E00C0F802F0E946C058C2F0E941406B9
:100D0000182F8C2F0E94B005F6019081D12FD0951D
:100D1000D9238123D82B6C2F8D2F89270E9434064D
:100D2000F601D1936F01802F0E941406182F802F97
:100D30000E94B005F7019081D12FD095D92381234E
:100D4000D82B602F8D2F89270E943406F701D1936D
:100D50007F010E945D05CF5FC73039F60E940B0B03
:100D600081E0DF91CF911F910F91FF90EF90DF9085
:100D7000CF900895E82FF0E0EF5CFD4F808108955B
:100D8000089556985E9825982D9826982E9827981D
:100D90002F988FEF90E09093890080938800909334
:100DA0008B0080938A0090938D0080938C00259A0D
:100DB0002D9A2FEF80E792E0215080409040E1F79C
:100DC00000C00000269A2E9A2FEF80E792E0215073
:100DD00080409040E1F700C00000279A2F9A2FEF43
:100DE00080E792E0215080409040E1F700C0000091
:100DF00025982D982FEF80E792E021508040904079
:100E0000E1F700C0000026982E982FEF80E792E0CF
:100E1000215080409040E1F700C0000027982F98B3
:100E200056985E9825982D9826982E9827982F9852
:100E3000089589EA8093800089E080938100249856
:100E40002C983F988AB18F7C8AB96E98479A8BB15B
:100E500080638BB9769A0E94C1060C948B0780E25E
:100E60008093000180913F0281110EC00E940B050A
:100E700081E080933F022FEF83ED90E3215080408B
:100E80009040E1F700C0000080E40E9411058093CB
:100E9000000181112EC00E943B0580930001811149
:100EA00028C00E943B0580930001811122C08FE37E
:100EB0000E943B058093000181111BC00E943305F5
:100EC00080E40E94110580930001811112C08CE022
:100ED0000E943B058093000181110BC00E943B05DD
:100EE00080930001811105C08FE30E943B05809330
:100EF00000010E943305809100010895611108C02E
:100F0000FC018281882321F080EE91E00E94060B93
:100F100080E090E008950895FB01843D2CE5920760
:100F200069F0853D2CE5920789F0833D9C45B1F43D
:100F300082818823A1F00E9405220EC0828188232D
:100F400071F08CEA91E00E94060B06C08281882332
:100F500031F081E00E944C1180E0089581E0089515
:100F6000CF92DF92EF92FF926B017C010E94B5213C
:100F700056985E9825982D9826982E9827982F9801
:100F800090E0FC013197E730F105A8F4E35AFF4FF8
:100F90000C94BD32259A2D9A0EC0259A2D9A269A28
:100FA0002E9A09C0259A2D9A04C0259A2D9A269A20
:100FB0002E9A279A2F9AC701B601FF90EF90DF90E3
:100FC000CF90089581E008950C948C070E947A1BBD
:100FD0002FEF84E39CE0215080409040E1F700C077
:100FE00000000C949123FF920F931F93CF93DF93F4
:100FF0008C01FC01C081D18180919102811113C0CB
:101000008281882349F0CE010E94AB20F82E682F00
:10101000CE010E944E2004C0CE010E947E20F82EF8
:10102000BE018F2D04C0CE010E94AB20BE010E94E4
:10103000210BEC01B8010E94E407882309F486C261
:10104000B801CE010E94940D882309F47FC2B80133
:10105000CE010E94E30D882309F478C2C23CFCE56E
:10106000DF0741F4F8018281882309F46FC20E94EE
:1010700032116CC2C33C8CE5D80708F015C1CB3BDC
:101080009CE5D90761F4F8018281882309F45EC2E6
:101090000E947C218272E1F00E94D11157C2CC3BA8
:1010A000ECE5DE07C0F0CE3B9CE5D90709F4CDC0E6
:1010B00008F0DFC0CC3BFCE5DF0709F0CEC0F8014B
:1010C0008281882309F442C20E947C21827221F32A
:1010D0000E94C7113BC2C531FCE5DF0708F07EC0A6
:1010E000C2308CE5D80708F452C0F8018281882309
:1010F00009F459C00E942622811102C00E940522D3
:101100000E94392290E09093AD038093AC03FE01DE
:10111000E350FC45E231F10530F4EC59FF4F80918A
:10112000AC030C94BD328091AC03816027C0826017
:1011300025C0846023C0806121C080621FC080649C
:101140001DC080681BC08460886018C08E7F16C078
:101150008D7F14C08B7F12C08F7E10C08F7D0EC01C
:101160008F7B0CC08F770AC08B7F877F07C087FB80
:10117000222720F991E0922790FB87F98093AC0316
:101180008091AC030E943D220E947A1BDFC1C115F1
:101190009CE5D90781F0C130DC45A9F081E080935E
:1011A000450280934602C801DF91CF911F910F91B4
:1011B000FF900C94E207F8018281882309F4C6C1EC
:1011C0000E94E607C3C1F8018281882309F4BEC1E9
:1011D00080913003816080933003B8C1C531FCE554
:1011E000DF0739F50E947C21282FF8018281409188
:1011F000030150910401882379F02A7A91E009F4DF
:1012000090E090934002911102C069E201C065E351
:10121000CA010E949E220AC080914002811102C030
:1012200069E201C065E3CA010E94A9220E94492126
:101230008DC1CA3BDC4509F0B1CFF801828188231A
:1012400009F484C10E940E1281C1F80182818823B1
:1012500009F47CC10E94D41079C1CD3BDC4509F072
:101260009DCFF8018281882309F470C10E94BC10CF
:101270006DC1F8018281C03CFCE5DF0731F48823B1
:1012800009F464C10E94051161C1C13CDC4530F420
:10129000882309F45BC10E94F31058C1882309F424
:1012A00055C10E94171152C1C93CECE5DE0749F453
:1012B000F8018281882309F449C188E10E944C1118
:1012C00045C1CA3CFCE5DF0708F088C0C53C8CE599
:1012D000D807B1F4F8018281882309F437C10E944C
:1012E0008D0F663071058105910540F00E948D0FCC
:1012F000683071058105910508F4EACE86E0DECFFD
:10130000C63C9CE5D90728F5C33CECE5DE0739F47B
:10131000F8018281882309F419C181E0CFCFC43C50
:10132000DC4509F03BCFF8018281882309F40EC126
:101330000E948D0F623071058105910540F00E9479
:101340008D0F653071058105910508F4C1CE82E0ED
:10135000B5CFF8018281C73CFCE5DF07A1F4882303
:1013600009F4F4C00E948D0F6F307105810591055D
:1013700040F00E948D0F643171058105910508F4DC
:10138000A7CE8FE09BCFC83CDC45A0F4882309F4AE
:10139000DDC00E948D0F693071058105910540F017
:1013A0000E948D0F6E3071058105910508F490CE75
:1013B00089E084CF882309F4C9C00E948D0F65316C
:1013C00071058105910540F00E948D0F673171050F
:1013D0008105910508F47CCE85E170CFCC3CECE52D
:1013E000DE0781F5F8018281882361F010924602C0
:1013F0000E943523909344028093430280E20E942E
:101400005718A4C00E947C2181FF05C081E0809311
:101410004502809346028091460281110FC080915F
:101420004302909144020E944123883C910530F48C
:1014300087E20E94E91687E20E94F81780E20E9484
:101440005E1884C0CD3CFCE5DF0708F04AC0CA3C0A
:101450008CE5D807B1F4F8018281882309F476C0BD
:101460000E948D0F693171058105910540F00E9440
:101470008D0F623271058105910508F429CE89E14D
:101480001DCFCB3CDC4509F089CEF8018281882351
:1014900051F0109245020E943523909342028093AE
:1014A000410282E0ACCF0E947C2185FF05C081E033
:1014B00080934502809346028091450281110FC0BE
:1014C00080914102909142020E944123883C910503
:1014D00030F486E20E94E91686E20E94F81782E064
:1014E000AECFC03DECE5DE0731F4F8018281882300
:1014F00069F180E009C0C13DFCE5DF0741F4F80176
:101500008281882319F182E00E94832A1FC0CD3C8A
:10151000DC4509F043CEF8018281811167CF8091CB
:10152000460281118BCF80914302909144020E9428
:101530004123883C910508F081CF80E20E945E182B
:1015400088E20E94E91688E20E94F81780E0DF91A5
:10155000CF911F910F91FF900895CF93282F30E0E6
:10156000F901E85FF94FC491F901E857F94F249167
:10157000222359F081EE0E94E9168C2F0E94E91671
:101580008C2F0E94F81781EE04C08C2F0E94E91660
:101590008C2FCF910C94F8170F931F93CF93DF9359
:1015A000EC01062FFE018491882359F19E012F5FE3
:1015B0003F4F813041F4E901F9011491812F0E94DC
:1015C000E916812F0DC0823031F4E901F9018491CF
:1015D0000E94E9160AC0833031F4E901F9018491CF
:1015E0000E94F81702C00E94AD0A2196802F88231E
:1015F000C9F2EFE9FFE03197F1F700C00000815038
:10160000F6CFDF91CF911F910F91089560E00C9478
:10161000CC0A0C9419070C94E305282F2F7041F085
:10162000822F90E02A3010F44D9608950697089581
:1016300087E290E0089508950C941B0B0C941C0B0A
:10164000089596E0799FF001112494E5899FE00DBB
:10165000F11D1124E60FF11DEE0FFF1FE85EFD4F97
:10166000859194910895880F991FFC01EC5EFD4FC0
:10167000859194910895CF93DF930E94210B0E944E
:10168000EA0CEC01811520E59207F0F5811530E4B4
:10169000930708F021C1883E910500F5803E910531
:1016A00008F094C1883A910570F4853A910508F0E4
:1016B000A3C08130910509F489C108F440C10497A1
:1016C00008F084C13CC18D3B910508F4A0C0803C6A
:1016D000910508F434C1805C9109F0C081159042F5
:1016E00058F4C11581E0D80708F070C1C03FD1059A
:1016F00008F425C1D0656AC1C11590E3D90708F087
:10170000E1C0CE019F70DAC0811525E5920708F08F
:1017100043C0811534E5930708F0F5C0811542E513
:10172000940708F5C11581E5D80708F0D8C02C2F1B
:10173000237081E090E002C0880F991F2A95E2F79C
:101740009C689E0174E0369527957A95E1F72370A1
:10175000922BCF70C695C69540E2C49FE00111243C
:10176000C82BD92B33C1869586959E0123703327CC
:10177000C115D34508F0B8C040E2849FC0011124D0
:10178000C1E0D0E002C0CC0FDD1F2A95E2F78C2B20
:101790009D2BEC01DC681AC181152AE5920798F4AB
:1017A000811539E5930708F0B9C08115964508F40D
:1017B000AFC0C11588E5D80708F4C1C0DC2FCC271D
:1017C000C06FD06A03C1C1159BE5D90708F4B7C043
:1017D000C1152CE5D20708F4AFC0CE019056811593
:1017E000904208F0ACC08D2F8F710E94670DDD27ED
:1017F000D0628F71D82BEAC0853A910509F4A2C056
:10180000863A910509F0A1C0C2E8D0E4DFC0883A69
:10181000910509F49DC0893A910509F49CC08A3A62
:10182000910509F49BC08B3A910509F49AC08C3A52
:10183000910509F499C08B3B910509F498C08C3B44
:10184000910509F497C08D3A910509F496C0803B43
:10185000910509F495C08E3A910509F494C08F3A28
:10186000910509F493C0813B910509F492C0823B34
:10187000910509F491C0833B910509F490C0843B24
:10188000910509F48FC0853B910509F48EC0863B14
:10189000910509F48DC0873B910509F48CC0883B04
:1018A000910509F48BC0893B910509F48AC08A3BF4
:1018B000910509F489C0C0E0D4E488C00E94330BCC
:1018C000EC0184C0CE019927D3FF03C0EC01D86C92
:1018D0007DC0EC01D06C7AC0DF70D06A77C0DC2F9D
:1018E000CC27C16FD06A72C040E2849FC00111242E
:1018F000C1E0D0E002C0CC0FDD1F2A95E2F7C82B73
:10190000D92BDA6863C0D82FCC27C46FD06A5EC0E9
:10191000CF71DD27DC2FCC27D06258C08F70806E4E
:1019200090E0906A24E0D695C7952A95E1F7CF70AC
:101930009C013C2BE9014AC0DD27D06647C0C0E0CE
:10194000D0E044C0C1E8D0E441C0C3E8D0E43EC028
:10195000C2EED4E43BC0C9EED4E438C0CAEED4E44D
:1019600035C0C5EBD4E432C0C6EBD4E42FC0C3EB22
:10197000D4E42CC0C4EBD4E429C0C7EBD4E426C023
:10198000CCECD4E423C0CDECD4E420C0C3E8D5E44F
:101990001DC0CAE8D5E41AC0C2E9D5E417C0C4E93D
:1019A000D5E414C0C1E2D6E411C0C3E2D6E40EC04F
:1019B000C4E2D6E40BC0C5E2D6E408C0C6E2D6E471
:1019C00005C0C7E2D6E402C0CAE2D6E4CE01DF9188
:1019D000CF9108958238910549F1B0F48133910592
:1019E00009F458C048F48932910509F44EC08A328E
:1019F000910509F454C008958533910509F440C058
:101A00008933910599F00895833E910529F138F4C1
:101A1000803E910591F0823E9105A1F00895863EA9
:101A20009105F9F0873E910531F108952091AC03BD
:101A300020FD3AC021FD38C008958091AC0380FD9F
:101A400035C032C08091AC0382FF32C08091AC03BC
:101A500084FD30C083EE39C08091AC0382FD28C084
:101A6000F5CF8091AC0383FF27C08091AC0384FD48
:101A700021C087EE2AC08091AC0383FD1DC0F5CF45
:101A80008091AC0385FD1AC01BC08091AC0385FD1D
:101A900017C014C08091AC0386FD14C015C080919E
:101AA000AC0386FD11C00EC080EE0FC089E30DC0EF
:101AB00082EE0BC080E009C086EE07C089E205C057
:101AC00085E303C08AE201C081E390E00895CF93EB
:101AD000C82F0E94392290E09093AD038093AC030D
:101AE00082FF0DC09C2F9871983019F4C77FC46095
:101AF00006C09C2F9471943011F4CB7FC86083FF93
:101B00000DC09C2F9871983119F4C77EC46106C02E
:101B10009C2F9471943111F4CB7EC86184FDC77EF3
:101B20008C2FCF91089508950F931F93CF93FB01AE
:101B30002281211102C0C1E041C08C01C091540238
:101B4000C11125C086319C45B1F70E94930D81E0FB
:101B5000809354020E943523909353028093520243
:101B600010924702109249021092480210924B02C2
:101B700010924A0210924D0210924C0210924F02A3
:101B800010924E02109251021092500217C0809192
:101B90005202909153020E944123883C910558F6CD
:101BA00090914702E92FF0E0EE0FFF1FE85BFD4F39
:101BB000118300839F5F90934702C0E08C2FCF91E9
:101BC0001F910F910895CF93DF93813020E8920702
:101BD000D0F0FB0122812223B1F0EC01809155026B
:101BE000811109C08CE090E00E94C3320E94070E70
:101BF00081E0809355020E940E0ECE019F770E94D5
:101C0000D60E0E948A0E81E0DF91CF9108958093D5
:101C10005602682F8CE090E00C94D732E0910301DB
:101C2000F091040180818093610381FF03C081EE04
:101C30000E94F8178091610385FF03C085EE0E9422
:101C4000F8178091610380FF03C080EE0E94F817AF
:101C50008091610384FF03C084EE0E94F817809195
:101C6000610382FF03C082EE0E94F8178091610336
:101C700086FF03C086EE0E94F8178091610383FF00
:101C800003C083EE0E94F8178091610387FF03C0B1
:101C900087EE0E94F81780915602823001F1A8F475
:101CA0008823C9F0813079F580EE0E94E91681EE33
:101CB0000E94E91688E10E94E91688E10E94F8175F
:101CC00081EE0E94F81780EE1CC0843081F08530D0
:101CD000D1F486EE01C082EE0E94E91614C082EEB5
:101CE0000E94E91687E50E94E91687E50AC086EE9C
:101CF0000E94E91686EE0E94F81788E10E94E91614
:101D000088E10E94F8178FE39CE90197F1F700C082
:101D10000000089580915602813049F030F0823001
:101D200021F0853051F486EE06C082EE04C08CE2CC
:101D30000E94E9168CE20E94F8178091610381FFEE
:101D400003C081EE0E94E9168091610385FF03C004
:101D500085EE0E94E9168091610380FF03C080EE4A
:101D60000E94E9168091610384FF03C084EE0E9403
:101D7000E9168091610382FF03C082EE0E94E9169A
:101D80008091610386FF03C086EE0E94E916809170
:101D9000610383FF03C083EE0E94E9168091610313
:101DA00087FF03C087EE0C94E9160895EF92FF9227
:101DB0001F93CF93DF937C01CCE0D0E097010C2EF2
:101DC00002C0369527950A94E2F7122F1F70812FD3
:101DD0000E940D0B0E94E916812F0E940D0B0E949C
:101DE000F8172497CC3F8FEFD80741F7DF91CF91B9
:101DF0001F91FF90EF900895EF92FF920F931F9322
:101E0000CF93DF93E901662309F44BC0242F30E020
:101E1000EFEFF0E0E61BF109B901E69F9001E79FC3
:101E2000300DF69F300D1124232F8B01031B110958
:101E30005CE3E52EF12CB7010E949532FB01BC0159
:101E4000069FC001079F900D169F900D1124B701AA
:101E50000E949532E230F105B1F040F4309779F00C
:101E6000319711F5832F242F461B21C0E430F10553
:101E7000A1F068F03597C1F4842F861B18C0832F1A
:101E8000262F230F14C0862F830FE42F03C0E42FC7
:101E9000E61B842F432F2E2F0AC0842F462F430F7B
:101EA00006C0842F242F03C080E020E040E0E42F10
:101EB000F0E0EE5DF84F4491E22FF0E0EE5DF84F78
:101EC0009491E82FF0E0EE5DF84FE4914983988318
:101ED000EA83DF91CF911F910F91FF90EF900895CA
:101EE00088E090E00C94CB32AB01BC0188E090E03C
:101EF0000C94E932E2E6F3E083E08083109263031E
:101F00008FEF82838383609162037091630380917A
:101F10006403909165030C94740F6091620360FFF9
:101F200006C066956F7370E080E090E0089560E011
:101F300070E0CB0108958091620380FF06C06FE0DE
:101F400070E08AE693E00C94141580E090E0FC01C8
:101F5000E659FC4F11821082128204968C3391054F
:101F6000B1F7EDCF9091620390FF0FC020E030E019
:101F7000F901E659FC4F8183608342832C5F3F4F18
:101F80002C333105A9F70C949B0F0895EF92FF9223
:101F90000F931F93CF93DF9300D000D0CDB7DEB760
:101FA00000916203109163032091640330916503F3
:101FB00000936603109367032093680330936903CB
:101FC0002091620320FF21C0042FF62EE92E182F46
:101FD0009E012F5F3F4F0E94FC0E8091660310FB15
:101FE00087F9809366031695809167038078182B94
:101FF000E0FA17F910936703F092680300936903FE
:102000004B8169818A810E94B20F0F900F900F90CF
:102010000F90DF91CF911F910F91FF90EF90089556
:102020008F929F92AF92BF92CF92DF92EF92FF92E8
:102030000F931F93CF93DF93EC01062F142F809102
:10204000620380FF8CC0982F9E77923021F4CE01DE
:102050000E94C60F5AC0E82FE695EF739EE39E0FCD
:102060009F73943018F4109165034FC09AE39E0F4C
:102070009F73993070F4881F8827881F909163039D
:10208000292F220FC22FC82B97FB992790F9D92F00
:102090003CC087E28E0F8F738A30B8F5F0E07997F5
:1020A000E0FD02C021E001C02FEFEE7FE85FF84FB6
:1020B000859194916FE070E00E9495322603600153
:1020C000279FD00C11244E0188E9881A8EEF980AB8
:1020D0008AE6E82E83E0F82E98E6A92EBB24B39476
:1020E000C401B5010E9495329701412F602F0E94D3
:1020F000FC0E8C0C9D1C94E0E90EF11C86EAE8169F
:1021000083E0F80669F70E949B0F809162039C2F81
:10211000C0FB87F980936203969580916303807872
:10212000892BD0FB87F9809363030093640310939A
:1021300065036091620370916303809164039091E1
:102140006503DF91CF911F910F91FF90EF90DF908A
:10215000CF90BF90AF909F908F900C94740FDF91B1
:10216000CF911F910F91FF90EF90DF90CF90BF9094
:10217000AF909F908F900895E2E6F3E02081221FB8
:102180002227221F30916303432F440F842F822B79
:1021900037FB992790F90C9668E671E00E94A93206
:1021A000438162810C94101020916203221F222728
:1021B000221F30916303432F440F842F822B37FB60
:1021C000992790F98C3091051CF4845A9E4F01C0D8
:1021D0000C9768E671E00E94A93240916503609116
:1021E00064030C941010E2E6F3E08081881F8827D6
:1021F000881F90916303292F220F97FB992790F94D
:1022000043816FEF822B0C941010E2E6F3E08081A3
:10221000881F8827881F90916303292F220F97FB1F
:10222000992790F9438160E0822B0C941010409123
:102230006503842F90E0843F910514F4445F01C04E
:102240004FEF80916203881F8827881F9091630356
:10225000292F220F97FB992790F960916403822B15
:102260000C94101040916503842F90E00C9714F0AB
:102270004C5001C040E080916203881F8827881F6E
:1022800090916303292F220F97FB992790F9609172
:102290006403822B0C9410109091620390FF42C053
:1022A0009178811102C0926007C0833210F094646B
:1022B00003C08F73880F982B909362036091620321
:1022C0007091630380916403909165030E94740F81
:1022D00080916203982F9E77923019F410926C02CD
:1022E00010C0982F96959F732EE3290F2F732731D7
:1022F00020F491E090936C0204C0995D9F739A3032
:1023000068F3881F8827881F90916303292F220F65
:1023100097FB992790F94091650360916403822BA4
:102320000C941010089580913003816080933003E5
:1023300081E080936D020E942622811104C00E94D8
:1023400005220E947A0F0E94700F609362037093BF
:10235000630380936403909365036E7761F40E9436
:102360007A0F0E94700F60936203709363038093EF
:1023700064039093650381E080936C028091620313
:1023800080FF04C086958F730C944C110895809142
:10239000620386958F738F5F833208F081E00C941F
:1023A0004C118091620386958F73815009F482E20B
:1023B0000C944C11CF93DF93C2E6D3E08881816007
:1023C00088836091620370916303809164039091AC
:1023D00065030E94740F888186958F73DF91CF917A
:1023E0000C944C11E2E6F3E080818E7F8083609153
:1023F00062037091630380916403909165030E946E
:10240000740F10926C022FEF80E792E02150804011
:102410009040E1F700C000000C949B0F8091620394
:1024200080FD0C94F2110C94DA11CF93C82F809197
:102430006A0290916B020E944123EC2FF0E0E25E71
:10244000F84FE491F0E08E179F0708F443C00E9414
:10245000352390936B0280936A026091690270E069
:1024600080E090E00E94963020E030E04FE753E4B7
:102470000E94B92F2BED3FE049E450E40E94BF31A8
:102480000E942C320E9433302BE43AE34EE25FE3A9
:102490000E944C2F20EF3BEF48ED52E40E94BF31E9
:1024A0000E946530462F80916203881F8827881F0D
:1024B00090916303292F220F97FB992790F9609140
:1024C0006403822B0E94C60F8091690290E00196FE
:1024D00080936902CF910895CF93C82F80916702AE
:1024E000909168020E944123EC2FF0E0E55EF84FE6
:1024F000E491F0E08E179F07E8F00E943523909357
:102500006802809367024091650360916403809143
:102510006502909166020E94C60F809165029091BB
:102520006602019668E671E00E9495329093660219
:1025300080936502CF910895CF92DF92FF920F931F
:102540001F93CF93DF93F82E8091630290916402E2
:102550000E944123EF2DE695F0E0E85EF84FE4910C
:10256000F0E08E179F07E8F10E94352390936402F4
:10257000809363020AE613E0C0E0D0E088E6C82E4C
:10258000DD24D39480916102909162028C0F9D1F93
:10259000B6010E94953298014091650360916403F1
:1025A0000E94FC0E68960C5F1F4FC83681E0D8076A
:1025B00049F70E949B0F2091610230916202F0FE68
:1025C0000AC0C9010196BE010E9495329093620231
:1025D0008093610206C0215031093093620220933A
:1025E0006102DF91CF911F910F91FF90DF90CF900B
:1025F0000895AF92BF92CF92DF92EF92FF920F9326
:102600001F93CF93DF93C82F80FF02C01FEF01C03D
:1026100011E080915F02909160020E944123C69573
:10262000EC2FF0E0EB5EF84FE491F0E08E179F079F
:1026300008F466C00E9435239093600280935F0285
:102640002AE6C22E23E0D22E3CE6E32E33E0F32E20
:10265000C0E0D0E0F70131971082F6011082F70157
:10266000108294E0A92EB12C00E080915E02800FD0
:1026700087FD815F082E000C990BC817D907E9F474
:10268000809165038A9DA0018B9D500D1124559565
:1026900047955595479580916203881F8827881F25
:1026A00090916303592F550F97FB992790F9960145
:1026B00060916403852B0E94FC0E010FF1E0AF1ABC
:1026C000B10899F6219684E0C80ED11CE4E0EE0E24
:1026D000F11CCF30D10509F0BDCF0E949B0F809136
:1026E0005E02113031F4811102C08EE007C08150CA
:1026F00005C090E00196BE010E94A93280935E025F
:10270000DF91CF911F910F91FF90EF90DF90CF90CD
:10271000BF90AF9008950F931F93CF93DF93C82F6F
:1027200080915C0290915D020E944123EC2FF0E0C9
:10273000EE5EF84FE491F0E08E179F0708F464C056
:102740000E94352390935D0280935C0280E090E0CC
:10275000FC01E659FC4F11821082128204968C33E0
:102760009105B1F7C0E0D0E00FE010E0CE01B80174
:102770000E94A932FC0180915B02082E000C990B8B
:10278000EE0FFF1FEE0FFF1FC817D907FCF0809157
:102790000201082E000C990B8C179D07BCF09F01BD
:1027A00026593C4F80916203881F8827881F90918B
:1027B0006303592F550F97FB992790F940916503B3
:1027C00060916403852B0E94FC0E05C0E659FC4F06
:1027D0001182108212822196CF30D10539F60E94E3
:1027E0009B0F8091010190915B02980F90935B0287
:1027F00020910201280F20930201121614F49E303A
:102800001CF0819580930101DF91CF911F910F9171
:102810000895EF92FF920F931F93CF93DF938091D0
:10282000590290915A020E944123883E9340D0F170
:102830000E94352390935A0280935902C091570207
:10284000D09158022196C170DD27D0935802C093D1
:1028500057028AE6E82E83E0F82E10E008E7812F81
:102860008695FE01E80FF11DCF0181709927970130
:102870004091650360916403FC010E9FC0010F9FAE
:10288000900D11240E94FC0E1F5FF4E0EF0EF11C6E
:102890001F3029F7DF91CF911F910F91FF90EF909B
:1028A0000C949B0FDF91CF911F910F91FF90EF90B0
:1028B000089580916C02882391F190916203892F91
:1028C00086958F732EE3280F2F73243018F48250CF
:1028D0000C9415122AE3280F2F73233018F4865016
:1028E0000C946C1227E3280F2F73263018F48950AC
:1028F0000C949C1221E3280F2F73263018F48F506C
:102900000C94F9122BE2280F2F73233018F4855101
:102910000C948B139E77903311F40C940914089542
:10292000882319F05198599A02C0519A5998509891
:10293000589A95E09A95F1F70000509A589895E0CA
:102940009A95F1F70000882311F0519A599885E083
:102950008A95F1F7000008958BB18C7F8BB9509860
:10296000589A5198599A85E08A95F1F70000089590
:102970008AB18C7F8AB985E08A95F1F70000519A77
:10298000599885E08A95F1F70000509A589885E0AB
:102990008A95F1F7000008955098589A85E08A9535
:1029A000F1F700005198599A85E08A95F1F70000F7
:1029B0000895CF93DF93D82FC8E08D2F80780E94A1
:1029C0009014DD0FC150C9F780E00E94901485E09B
:1029D0008A95F1F7000085E08A95F1F7000080E024
:1029E000DF91CF9108952BB1342F309523233BB144
:1029F000432B3FB7F894FC01680F791FE617F707E0
:102A000089F0819198E04BB9000000C087FF2BB995
:102A1000880F000000C000C000C02BB900C09A950C
:102A200091F7ECCF3FBF0895AF92BF92CF92DF9264
:102A3000EF92FF920F931F93CF93DF938C01EB01E3
:102A4000CFB6D090BC00F8948091BC008B7F80936F
:102A5000BC000E94AC140E94B81484E80E94D914EF
:102A6000CC0FDD1FCC0FDD1F78015801AC0EBD1E51
:102A7000EA14FB0431F0F70181917F010E94D9141F
:102A8000F7CF0E94CC14CFBED092BC00579A40E83A
:102A9000BE01C801DF91CF911F910F91FF90EF9080
:102AA000DF90CF90BF90AF900C94F314909373028B
:102AB000809372020895E0917202F0917302309750
:102AC00021F00190F081E02D099480E00895E091DB
:102AD0007202F0917302309721F00280F381E02DB1
:102AE00009940895E0917202F0917302309721F0F9
:102AF0000480F581E02D09940895209170023091B1
:102B000071028217930771F09093710280937002A3
:102B1000E0917202F0917302309721F00680F78104
:102B2000E02D0994089520916E0230916F02821772
:102B3000930771F090936F0280936E02E09172029E
:102B4000F0917302309721F00084F185E02D099413
:102B5000089508950C94A91581E008950E942C23EE
:102B60000E94E5050E94C3230C949311CF92DF923B
:102B7000EF92FF920F931F93CF93DF93CDB7DEB702
:102B80002B970FB6F894DEBF0FBECDBF0E94510643
:102B90000E94AC15811111C08FEF89838A831B823B
:102BA0000E9435238160782F9D838C8349815A81CF
:102BB0006B818D810E949A1656C085E7C82E82E0EF
:102BC000D82E00E010E0E02E802F0E94BA06F60119
:102BD00041916F01F42EF82631F40F5F1F4F0E3034
:102BE000110589F7D9CF9091300391FF04C08B87ED
:102BF0000E94C0068B8520E030E04F2D50E0922FE0
:102C0000BA01022E02C0759567950A94E2F760FF3B
:102C100024C02E83EF8221E030E0690102C0CC0C99
:102C2000DD1C9A95E2F790E08C219D21892B09F417
:102C300020E028870E9435238160782F9A87898732
:102C40004E815F8168858A850E949A16F801EB584B
:102C5000FD4F8081C826C08206C02F5F3F4F2630BF
:102C6000310569F6BACF0E945625109174020E9470
:102C70005B151817A1F00E945B15809374022B96C8
:102C80000FB6F894DEBF0FBECDBFDF91CF911F917D
:102C90000F91FF90EF90DF90CF900C941E0B2B962E
:102CA0000FB6F894DEBF0FBECDBFDF91CF911F915D
:102CB0000F91FF90EF90DF90CF900895DC01119677
:102CC0002C9111978C91682F70E041E050E001C089
:102CD000440F8A95EAF712968C91129730E0882378
:102CE00029F0809193028823E9F006C0F901ED579D
:102CF000FD4F90819423B1F086E0829FF001839F85
:102D0000F00D1124E60FF71FEE0FFF1FEB5EFE4FD5
:102D1000808191818D939C93F901ED57FD4F8081C6
:102D2000482B06C0F901ED57FD4F4095808148239F
:102D300040830895CF93DF93CDB7DEB72B970FB6BF
:102D4000F894DEBF0FBECDBF942F4F83252F588739
:102D500069877A878B874A855B85452B21F02F3FD2
:102D600009F59F3FF9F4DE01119686E0FD0111920D
:102D70008A95E9F785E0FE01379601900D928A95D4
:102D8000E1F749815A816B817C818D819E810E940E
:102D9000211E2B960FB6F894DEBF0FBECDBFDF917C
:102DA000CF910895CE0107960E945E16DCCFFC01FC
:102DB000808191810E94EA2092959F70963041F423
:102DC0008091930291E089278093930290939202DD
:102DD0000895CF93DF931F92CDB7DEB7882309F410
:102DE00003C1682F8238C1F40E945B1581FDFCC0CD
:102DF00069E380910301909104010E949E220E9448
:102E000049212FEF81EE94E0215080409040E1F77E
:102E100000C0000069E319C0833811F50E945B15FA
:102E200080FDE2C063E580910301909104010E945E
:102E30009E220E9449212FEF81EE94E02150804094
:102E40009040E1F700C0000063E58091030190919C
:102E500004010E94A9220F90DF91CF910C94492187
:102E60008438C1F40E945B1582FDBEC067E4809186
:102E70000301909104010E949E220E9449212FEF9C
:102E800081EE94E0215080409040E1F700C00000C6
:102E900067E4DBCF8CEF860F813A70F4862F69836D
:102EA0000E947F27698181119FC0809103019091C9
:102EB00004010E949E22CFCF80E2860F883048F422
:102EC000677081E001C0880F6A95EAF70E947F2150
:102ED000C2CF8BE5860F833088F4653A29F0663AD5
:102EE00031F083E890E005C081E890E002C082E81C
:102EF00090E00F90DF91CF910C947D1588E5860FBF
:102F0000853108F071C0683A61F1693A69F16A3A4D
:102F100071F16B3A79F16C3A81F16B3B89F16C3B61
:102F200091F16D3A99F1603BA1F16E3AA9F16F3AD6
:102F3000B1F1613BB9F1623BC1F1633BC9F1643B63
:102F4000D1F1653BD9F1663BE1F1673BE9F1683BC3
:102F5000F1F1693BF9F16A3B09F43FC080E090E090
:102F60003EC082EE90E03BC089EE90E038C08AEE31
:102F700090E035C085EB90E032C086EB90E02FC04A
:102F800083EB90E02CC084EB90E029C087EB90E0CD
:102F900026C08CEC90E023C08DEC90E020C083E84C
:102FA00091E01DC08AE891E01AC082E991E017C063
:102FB00084E991E014C081E292E011C083E292E0E2
:102FC0000EC084E292E00BC085E292E008C086E287
:102FD00092E005C087E292E002C08AE292E00F90A0
:102FE000DF91CF910C9493150F90DF91CF910895BD
:102FF000882309F45BC0682F823879F40E945B153E
:1030000081FF54C069E380910301909104010E9403
:103010009E220E94492169E310C08338B1F40E94C6
:103020005B1580FF43C063E580910301909104012B
:103030000E949E220E94492163E5809103019091A4
:1030400004010E94A9220C944921843879F40E9439
:103050005B1582FF2BC067E480910301909104010E
:103060000E949E220E94492167E4E7CF8CEF860FE1
:10307000813A18F380E2860F883048F4677081E067
:1030800001C0880F6A95EAF70E948521DCCF8BE5A5
:10309000860F833020F480E090E00C947D15685A10
:1030A000653120F480E090E00C9493150895882316
:1030B00021F00E947F210C9449210895882321F05A
:1030C0000E9485210C94492108958F929F92AF927E
:1030D000BF92CF92DF92EF92FF920F931F93CF9305
:1030E000DF931F92CDB7DEB77C01C72EFC010581AF
:1030F00002950F701281112321F069830E949C2197
:10310000698169830E9442216981882381F01123AA
:1031100071F080E2860F883050F082E00E942B210F
:103120000E94422191E0D82ED926698101C0D12C7C
:10313000AC2CA2948FE0A822B12CF501EA58FF4FE5
:103140000C94BD328C2D807F0C2D0F70882311F0D4
:103150000295007F1123C1F0002309F4D2C180E25F
:10316000860F883010F0611105C0802F69830E949E
:103170007F2104C0802F69830E948F216981698328
:103180000E9449216981BDC1862F69830E94F81779
:103190006981002309F431C280E2860F883010F083
:1031A000611104C0802F0E94852103C0802F0E94DE
:1031B00095210E94492121C29C2D907F8C2D8F70DA
:1031C000903211F08295807F662319F06130B1F062
:1031D0001EC0112349F0002309F44BC1013009F04E
:1031E00048C10E94AF2109C2002319F0013009F43F
:1031F00004C289830E94B221898141C1112321F037
:10320000023008F0FAC135C10111F7C138C11123EC
:1032100021F0002309F42DC174C1002309F42FC14A
:1032200081C18C2D86958695837090E0009719F06A
:10323000019761F0E2C1112321F0862F9C2D93703C
:1032400002C080E090E00E947D15E7C1112321F0CB
:10325000862F9C2D937002C080E090E00E94931511
:10326000DCC11123F9F0653F51F0663F71F0643F16
:10327000A9F48091A6039091A70381600BC080916F
:10328000A6039091A703826005C08091A603909148
:10329000A70384609093A7038093A603862F0E94C0
:1032A0005E241EC0653F51F0663F71F0643FA9F493
:1032B0008091A6039091A7038E7F0BC08091A603F7
:1032C0009091A7038D7F05C08091A6039091A703DD
:1032D0008B7F9093A7038093A603862F0E94C6241A
:1032E0000E944B259AC18C2D837009F052C0111198
:1032F00090C1862F829586958770880F880F962FAC
:103300009F70892E912CA12CB12C082E04C0880C02
:10331000991CAA1CBB1C0A94D2F764FF14C00FE0CE
:1033200010E020E030E0B901A80104C0440F551FAF
:10333000661F771F8A95D2F7CB01BA016095709509
:103340008095909503C060E070E0CB012C2D269510
:103350002695237030E02230310569F023303105A5
:1033600089F0682979298A299B292130310571F052
:103370000E94641F4EC1682979298A299B290E94CD
:10338000761F47C10E94641FC501B4010E94521FED
:1033900040C1112319F08C2D817001C086958823BE
:1033A00009F437C1862F829586958770880F880F1C
:1033B000962F9F70892E912CA12CB12C082E04C021
:1033C000880C991CAA1CBB1C0A94D2F764FF14C079
:1033D0000FE010E020E030E0B901A80104C0440F84
:1033E000551F661F771F8A95D2F7CB01BA016095EA
:1033F00070958095909503C060E070E0CB012C2D16
:10340000269526952370422F50E04230510569F0F1
:103410004330510589F0682979298A299B2941304F
:10342000510571F00E942920F4C0682979298A2960
:103430009B290E943B20EDC00E942920C501B401B8
:103440000E941720E6C0862F90E0FC01E05EF109A3
:10345000E531F10508F051C0EA57FF4F0C94BD3239
:10346000062F0F708C2D8F71112331F00E94B01F29
:10347000802F0E945718C1C00E94D11F802F0E9428
:103480005E18BBC0112339F00111B7C08C2D8F71AC
:103490000E94F61FB2C0023008F0AFC0F7CF112370
:1034A00039F08C2D8F710E94B01FA7C01123C9F372
:1034B0008C2D8F710E94D11FA0C0112329F08C2D5B
:1034C0008F710E949B1F99C00E94961F96C0112366
:1034D00051F01C2D1F71812F0E94B01F63E0812FBE
:1034E0000E9422218AC081E00E942B21023008F430
:1034F00084C082E00E942B2180C0112331F0002380
:1035000081F2862F0E94E91678C0002389F2693380
:1035100049F45FEF77EE83E0515070408040E1F76F
:1035200000C00000862F0E94F81767C04C2D4F7016
:10353000C7010E947E070E94C51E6FC0623FB1F0A6
:1035400028F4603F49F0613FF9F028C0643FB9F0CA
:1035500058F0653F71F022C0112309F449C09091E1
:10356000930281E0892708C081E018271093930215
:103570003FC011113DC081E08093930239C0111109
:1035800037C01092930234C0112329F08091920227
:10359000882329F32BC0002311F32AC080919202C3
:1035A0000023D1F0882341F09091930281E0892794
:1035B0008093930210929202862F6983112319F04F
:1035C0000E94E91607C00E94F81786E0F7011192E1
:1035D0008A95E9F769810CC0882351F0111108C060
:1035E0009091930281E08927809393021092920236
:1035F0004C2D4F70C7010E94200BF8E0AF16B104AC
:1036000041F05CF04AE0A41AB10852E0A516B104FA
:1036100020F40E945B150E941E0BDD20F1F00E9439
:103620001E2180FD1AC0F70112820E9418210E94FB
:10363000B01FC7010E943B1B0E9418210F90DF9111
:10364000CF911F910F91FF90EF90DF90CF90BF909F
:10365000AF909F908F900C94D11F0F90DF91CF91DE
:103660001F910F91FF90EF90DF90CF90BF90AF90A0
:103670009F908F9008950F931F93CF93DF93EC014A
:10368000888199812B813C81232BB9F09F3F11F4D4
:103690008F3F99F0CE010E94F307882371F0688173
:1036A00079818A810E94F5208C010E944D200E9420
:1036B0004F1FB801CE010E946518DF91CF911F9175
:1036C0000F9108950E949C210E94AC2180910301DA
:1036D000909104010E94B4220E9449210E94E42595
:1036E0000E944B2580E090E00E947D1580E090E0F4
:1036F0000C9493150E948C210C94621B0E94EA206A
:10370000E92FE295EF70F0E03297EE30F105B0F47A
:10371000E556FF4F0C94BD32803F91F018F4803E87
:1037200068F40EC0843F51F40BC0803E48F0813FE6
:1037300029F406C093FB882780F9089580E0089556
:1037400081E00895CF93DF9300D000D01F92CDB7D2
:10375000DEB70F900F900F900F900F90DF91CF91E9
:103760000895CF93DF9300D000D000D0CDB7DEB75F
:1037700026960FB6F894DEBF0FBECDBFDF91CF9176
:1037800008951F93CF93DF93C091940216E0809128
:103790009502C81799F0D0E01C9FF0011D9FF00D15
:1037A0001124EA56FD4F40815181628173818481E9
:1037B00095810E94B11B2196C770E9CFDF91CF910F
:1037C0001F9108954091C6025091C7026091C802AE
:1037D0007091C9028091CA029091CB020C94B11BE6
:1037E0008091CB0282958F7009F054C08091C802FD
:1037F000882309F44FC080919402A09195026091B2
:10380000C6027091C7024091C9025091CA02B6E047
:103810008A1709F43FC090E041155105C1F17F3F7F
:1038200011F46F3FA1F1B89FF001B99FF00D112481
:10383000EA56FD4F218172132AC02081621327C0EE
:103840002281211124C0238134812417350710F4EB
:1038500021503109241B350B283C3105C0F420913F
:10386000CB022F7020612093CB0226E0289FF0012D
:10387000299FF00D1124E556FD4F80818F708061E6
:10388000808386EC92E00E943B1B0C94C11B019646
:103890008770BECF0895CF92DF92EF92FF920F9381
:1038A0001F93CF93DF93CDB7DEB762970FB6F8942F
:1038B000DEBF0FBECDBF8C0185E0F801DE011D9695
:1038C00001900D928A95E1F7D8014C9111965C9187
:1038D000119712966C9112971396CD90DC901497D5
:1038E0003091C6027091C7028091C9029091CA02BC
:1038F000009709F46BC17F3F19F43F3F09F466C19B
:10390000E090C802EE2009F4C0C02091CB02C81696
:10391000D90628F0F601E81BF90BCF0104C0809509
:1039200090958C0D9D1DFF24F394883C910578F0B3
:10393000F12C207F09F0C6C07C2DD98AC88A8989DC
:103940000E94A21B86EC92E00E943B1BB1C0822F1A
:10395000807F09F046C0751314C0341312C0611182
:1039600010C02F7020612093CB020E94E21B86ECD6
:1039700092E00E943B1B8091CB02D80115968C935C
:103980002EC0CD2819F15F3F11F44F3FF9F0F62E0C
:1039900061111CC0809194022091950236E082173B
:1039A00009F45AC090E0389FF001399FF00D1124BE
:1039B000EA56FD4F7181571306C07081471303C04B
:1039C0007281711103C001968770E9CFF62E6623CC
:1039D00009F427C18091CB0281608093CB02F12C46
:1039E00020C1751308C0341306C0611104C0809152
:1039F000CB02D801C3C04D875E878D859E856A8BBB
:103A00000E947E1B6A898823E1F16623D1F120910F
:103A1000CB02822F82958F7090E0029774F0809194
:103A2000C6029091C70298878F831986DB86CA8663
:103A30002C87CE0107960E943B1B86E0F801A6EC7E
:103A4000B2E001900D928A95E1F70E94F01B0E946E
:103A5000E21BFF24F394E5C04D875E878D859E852C
:103A60000E94EA20292F22952F7030E02230310564
:103A70000CF0CBC09F7009F0C5C0805E883008F4A0
:103A8000D0C0C8010E943B1BE4CFC816D90608F479
:103A900053C0F601E81BF90BCF01883C910508F4EF
:103AA00050C0F12C7C2DD98AC88A89890E94A21B1A
:103AB000E6ECF2E086E0DF011D928A95E9F70E94CC
:103AC000E21BAFC0751314C0341312C0611110C0D3
:103AD0008091CB02F8018583C8010E943B1B86E0E0
:103AE000E6ECF2E0DF011D928A95E9F7FE2C99C021
:103AF0004D875E878D859E856A8B0E947E1B6A89B5
:103B0000882309F4BECF662309F4BBCF2091CB02F2
:103B1000822F82958F7090E002970CF48ECF809167
:103B2000C6029091C7029A8389831B82DD82CC8270
:103B30002E83CE0101967FCF809590958C0D9D1D93
:103B4000ACCFF62E662309F49CCF75132EC0341328
:103B50002CC02091CB0220FD1FC0822F82958F7038
:103B6000D9F0D80115962C9315978F3049F08F5FB7
:103B7000982F9295907F822F8F70892B15968C931A
:103B8000C8010E943B1B86E0F801A6ECB2E0019060
:103B90000D928A95E1F793CF86E0F801A6ECB2E0AA
:103BA00001900D928A95E1F73CC04D875E878D8527
:103BB0009E850E947E1B811140CF8091CB02816047
:103BC0008093CB02C8010E943B1B2BC0662309F4E3
:103BD00058CF4D875E878D859E850E947E1BF82E6F
:103BE000882309F44ECF86E0F801A6ECB2E00190FC
:103BF0000D928A95E1F786EC92E00E94D7160E941A
:103C0000F01B5DCF811139CF0CC0243031050CF091
:103C100038CF9F7009F431CFF8019581907F09F07A
:103C20002CCF8F2D62960FB6F894DEBF0FBECDBF9E
:103C3000DF91CF911F910F91FF90EF90DF90CF9088
:103C400008951F93CF93DF93CDB7DEB72C970FB6B0
:103C5000F894DEBF0FBECDBF4F83588769877A8740
:103C60008B879C87CE0107960E944B1C882369F0A6
:103C70008F8198852A853B85232BF1F19F3F09F0A1
:103C800063C08F3F09F060C037C086E0FE01379601
:103C9000DE01119601900D928A95E1F76F8178858A
:103CA000EA85FB85309741F17F3F11F46F3F21F1A9
:103CB0002091950230E0C9010196877099274091C3
:103CC000940250E08417950709F447C069837A830A
:103CD000FD83EC8396E0929FD001939FB00D112459
:103CE000AA56BD4FFE01319601900D929A95E1F7CB
:103CF000809395020E94C11B16E0809194029091DE
:103D000095028917C1F1189FC00111248A569D4F51
:103D10000E944B1C882379F1E09194021E9FF001D0
:103D20001124EA56FD4F4081518162817381848163
:103D300095810E94B11B8091940290E0019687705A
:103D4000992780939402D9CF4F81588569857A85C8
:103D50008B859C850E94B11BCFCF0E947A1B10924D
:103D6000950210929402E6ECF2E086E0DF011D92EB
:103D70008A95E9F7C1CF2C960FB6F894DEBF0FBE37
:103D8000CDBFDF91CF911F910895EF92FF920F93D6
:103D90001F93CF93DF938C01892B09F46CC0F12C16
:103DA000EE24E394E8012196F8018491843740F4ED
:103DB000843008F051C0813081F0823019F15BC04D
:103DC000853709F444C0A8F19CE7980F903708F0B4
:103DD00052C08F770E94F81741C00E5F1F4FFE013F
:103DE000C49180E28C0F883048F4C7708E2D01C0DA
:103DF000880FCA95EAF70E949F2114C08C2F0E9459
:103E0000E9162DC00E5F1F4FFE01C49180E28C0F9A
:103E1000883058F4C7708E2D01C0880FCA95EAF714
:103E20000E94A5210E9449211AC08C2F0E94F817D8
:103E300016C00E5F1F4FFE01C491CC2381F08FE9A5
:103E40009FE00197F1F700C00000C150F6CF0E5F70
:103E50001F4FFE01F49003C00E94E9168E018F2DC2
:103E6000882309F49FCFEFE9FFE03197F1F700C015
:103E700000008150F5CFDF91CF911F910F91FF90FE
:103E8000EF90089508950E94421F60930703709376
:103E900008038093090390930A030C94621B08950E
:103EA0000C94431F0F931F93009107031091080375
:103EB0002091090330910A03602B712B822B932BE5
:103EC0001F910F910C94431F0F931F9300910703B1
:103ED000109108032091090330910A036023712394
:103EE000822393231F910F910C94431F0F931F93D1
:103EF00000910703109108032091090330910A03F0
:103F000060277127822793271F910F910C94431FDD
:103F10000C94B0070E94881F6093030370930403FE
:103F200080930503909306030C94621B60E070E09D
:103F3000CB010C948A1F0F931F9341E050E060E087
:103F400070E08A019B0104C0000F111F221F331F64
:103F50008A95D2F7C901B8011F910F910C948A1F5D
:103F60000F931F9341E050E060E070E004C0440F05
:103F7000551F661F771F8A95D2F780910303909192
:103F80000403A0910503B09106038A019B01082B4D
:103F9000192B2A2B3B2BC901B8011F910F910C94AF
:103FA0008A1F0F931F9341E050E060E070E004C06F
:103FB000440F551F661F771F8A95D2F7409550957D
:103FC000609570958091030390910403A09105037F
:103FD000B09106038A019B01082319232A233B235E
:103FE000C901B8011F910F910C948A1F0F931F9361
:103FF00041E050E060E070E004C0440F551F661FD0
:10400000771F8A95D2F78091030390910403A091C2
:104010000503B09106038A019B01082719272A2767
:104020003B27C901B8011F910F910C948A1F0F9370
:104030001F93009103031091040320910503309115
:104040000603602B712B822B932B1F910F910C94E5
:104050008A1F0F931F930091030310910403209173
:1040600005033091060360237123822393231F915C
:104070000F910C948A1F0F931F93009103031091CB
:1040800004032091050330910603602771278227DE
:1040900093271F910F910C948A1F0895292F220FA7
:1040A000920F990F890FA82FA695A695A6958770B0
:1040B00051E001C0550F8A95EAF785E0A89FD0012D
:1040C000112420E030E070E0F901EA0FFB1FE45317
:1040D000FD4F4081CB01022E02C0969587950A9430
:1040E000E2F781709927819584278523842780832F
:1040F0002F5F3F4F2530310539F70895292F220FC3
:10410000920F990F890F682F669566956695982F7F
:10411000977085E0689FB001112440E050E080E096
:10412000FA01E60FF71FE453FD4F208130E0092E1E
:1041300002C0369527950A94E2F721703327042EA2
:1041400001C0220F0A94EAF7822B4F5F5F4F453080
:10415000510531F70895CF92DF92EF92FF920F93BE
:104160001F93CF93DF938C01C0900703D090080377
:10417000E0900903F0900A038091030390910403F7
:10418000A0910503B0910603C82AD92AEA2AFB2A7E
:10419000CFE1D0E0D701C6010C2E04C0B695A7959B
:1041A000979587950A94D2F780FF06C0B8018C2FA7
:1041B0000E943B0B019721F4219760F780E001C03A
:1041C0008C2FDF91CF911F910F91FF90EF90DF9097
:1041D000CF900895CF93DF93EC010E94AB20BE01F6
:1041E0000E943B0BDF91CF9108951F93CF93DF93F4
:1041F000EB0190919102992321F0CB010E94EA20DA
:1042000013C0882349F0CB010E94AB20182F682FE0
:10421000CE010E944E2004C0CB010E947E20182FA8
:10422000BE01812F0E943B0BDF91CF911F9108951A
:1042300080910B03859585958595089580910B0355
:104240008770089598E0899F90011124262B209370
:104250000B030C94B01F20910B0380958223809355
:104260000B03982F977069F430E0482F082E000C4C
:10427000550B2417350729F08595859585950C9460
:10428000D11F089590910B03977081E009F480E0AD
:104290000895E0910301F091040180912F03808340
:1042A000E0910301F0910401908180912E03892B0C
:1042B0008083E0910301F0910401908180912D03AE
:1042C000892B808380910C03882381F0E091030186
:1042D000F09104019081892B80838091030190915A
:1042E00004010E944222811110920C03809103016B
:1042F000909104010C94671580912F03089590917B
:104300002F03892B80932F030895809590912F037D
:10431000892380932F03089510922F03089590917D
:104320002E03892B80932E030895809590912E0360
:10433000892380932E03089510922E03089590915F
:104340002D03892B80932D030895809590912D0343
:10435000892380932D03089510922D03089580934F
:104360000C03089510920C030895CF92DF92EF9200
:10437000FF926C01EE24FF24C114D104E104F10486
:1043800021F0C701B60120E101C020E0C72ED82EE0
:10439000E92EFF24C114D104E104F10419F0285FCF
:1043A000C701B6016B017C0154E0F694E794D79401
:1043B000C7945A95D1F7C114D104E104F10419F05E
:1043C0002C5FC701B6016B017C0142E0F694E794D3
:1043D000D794C7944A95D1F7C114D104E104F104EC
:1043E00019F02E5FC701B601DC01CB01B695A79588
:1043F00097958795892B8A2B8B2B09F02F5F822F1E
:10440000FF90EF90DF90CF9008956DEE7EEF80E00B
:1044100090E00E94F53260E082E090E00E94D732A6
:1044200060E083E090E00E94D73260E084E090E0BA
:104430000E94D73260E085E090E00E94D73240E0F1
:1044400050E0BA0188E090E00C94E93280E090E01E
:104450000E94D13221E08D3E9E4F09F020E0822F54
:10446000089582E090E00C94C33283E090E00C94D5
:10447000C33284E090E00C94C332682F84E090E073
:104480000C94D732FC0131969C01205E3F4F80E0B6
:10449000919191118F5FE217F307D1F708959C0175
:1044A000FC0132969FEF80E04191461789F09F3FD3
:1044B00019F4411101C0982F8F5F8E31A9F79F3FEA
:1044C00039F0F901E90FF11D97FDFA95628308951E
:1044D0000895FC01329680962081261301C0108237
:1044E0003196E817F907C1F70895262F26952695E6
:1044F00026952F3168F4FC01E20FF11D677021E071
:1045000030E001C0220F6A95EAF78181282B2183D0
:104510000895262F2695269526952F3170F4FC01B7
:10452000E20FF11D677021E030E001C0220F6A95B3
:10453000EAF7209581812823218308952091140191
:10454000222329F02091AC0327FD0C9475220C94B2
:104550004F2220911401222329F02091AC0327FD42
:104560000C9489220C946922FC0131968096119258
:10457000E817F907E1F708958091B203843039F123
:104580001092310320E488E190E00FB6F894A895EA
:10459000809360000FBE2093600080E00E941E0B9D
:1045A00083B7817F846083BF83B7816083BF789442
:1045B000889583B78E7F83BF0FB6F894A8958091B6
:1045C0006000886180936000109260000FBE0895C3
:1045D0000895CF930E9404060E9451060E94E8228B
:1045E000C0E08C2F0E94BA06811104C0CF5FCE308C
:1045F000C1F701C081E0CF9108950E947A1B0E940B
:104600005B150C941E0B1F920F920FB60F92112484
:104610008F939F93AF93BF9380913103811113C008
:104620008091A8039091A903A091AA03B091AB0334
:104630004196A11DB11D8093A8039093A903A09357
:10464000AA03B093AB03BF91AF919F918F910F904D
:104650000FBE0F901F90189582E084BD93E095BD2A
:104660009AEF97BD80936E0008952FB7F8948091CC
:10467000A8039091A903A091AA03B091AB032FBF07
:104680000895CF92DF92EF92FF920F931F932FB76F
:10469000F8944091A8035091A9036091AA037091E6
:1046A000AB032FBF6A017B01EE24FF248C0120E0C5
:1046B00030E0C016D106E206F30610F4415051096D
:1046C0009A01281B390BC9011F910F91FF90EF90A0
:1046D000DF90CF90089578941F920F920FB60F92AB
:1046E00011248F939F93AF93BF938091A8039091D0
:1046F000A903A091AA03B091AB030196A11DB11D1E
:104700008093A8039093A903A093AA03B093AB034B
:10471000BF91AF919F918F910F900FBE0F901F90FF
:104720001895F89481E08093E00080E28093D800AF
:10473000E9ECF0E010828FE19EE40197F1F700C010
:1047400000001DBA109268001CBC10BE1FBA109267
:104750007A0010926E0010926F0010927100109209
:1047600072001082ECEBF0E0108214B817B81AB89F
:104770001DB810BA108215B818B81BB81EB811BAF7
:104780000C94003F08950E942622811102C00E94CD
:1047900005220E943122809330030E94392290E04A
:1047A0009093AD038093AC030E943522682F70E094
:1047B00080E090E00C94501F8091350380FF0BC087
:1047C0006091080185E0689FB00111247595679597
:1047D000759567952BC081FF09C06091080185E040
:1047E000689FB00111247595679520C082FF07C0AE
:1047F0006091080185E0689FB001112417C0909175
:1048000036039923D1F060910701961788F720911C
:10481000080185E0289F90011124929FA001939F99
:10482000500D112470E0CA010E94A9326038710550
:1048300040F46115710539F002C065E070E0862F23
:1048400008958FE7089581E008958091350380FFF2
:1048500008C06091060170E075956795759567953C
:1048600021C081FF06C06091060170E075956795D3
:1048700019C082FF04C06091060170E010C09091E1
:1048800036039923C1F0609105019617A0F7809136
:104890000601899FC001112470E00E94A93260388E
:1048A000710528F46115710521F0862F08958FE7B1
:1048B000089581E0089561E070E0F4CF803F21F435
:1048C0000E94DC23819504C0813F29F40E94DC23EF
:1048D000809339030895823F21F40E94DC2381955F
:1048E00004C0833F29F40E94DC2380933803089599
:1048F000893F19F40E94252405C08A3F31F40E94A3
:104900002524819580933A0308958B3F21F40E94DA
:104910002524819504C08C3F29F40E94252480938E
:104920003B030895843F21F480913703816017C0D1
:10493000853F21F480913703826011C0863F21F4C6
:104940008091370384600BC0873F21F48091370347
:10495000886005C0883F31F480913703806180937F
:10496000370308958D3F21F48091350381600BC09A
:104970008E3F21F480913503826005C08F3F29F47A
:10498000809135038460809335030895803F39F426
:104990008091390387FF6CC01092390369C0813F51
:1049A00029F4809139031816BCF362C09091380342
:1049B000823F29F497FF5CC01092380359C0833FAF
:1049C00019F41916CCF354C0893F41F480913A038D
:1049D00018160CF04DC010923A034AC08A3F29F4D1
:1049E00080913A0387FF44C0F6CF8B3F39F4809122
:1049F0003B0387FF3DC010923B033AC08C3F29F434
:104A000080913B031816BCF333C0843F21F480919E
:104A100037038E7F17C0853F21F4809137038D7F48
:104A200011C0863F21F4809137038B7F0BC0873FF5
:104A300021F480913703877F05C0883F31F480914E
:104A400037038F7E8093370313C08D3F21F480910D
:104A500035038E7F0BC08E3F21F4809135038D7F0F
:104A600005C08F3F29F4809135038B7F80933503F8
:104A70008091380381110EC08091390381110AC0E1
:104A800080913A03811106C080913B03811102C0DD
:104A900010923603089587E393E00E9472150E94F6
:104AA0003523909333038093320308951F93CF935C
:104AB000DF9380913203909133030E944123AC0134
:104AC00090913603992321F02091090130E006C02E
:104AD000209134038AE0289F900111244217530744
:104AE00008F46EC080913803C0913903D0913A0325
:104AF00010913B03811107C0C1115EC0D1115CC090
:104B000011115AC05DC09F3F19F09F5F909336030B
:104B1000181624F40E94DC23809338038091380314
:104B200087FF05C00E94DC238195809338031C1603
:104B300024F40E94DC23809339038091390387FF9A
:104B400005C00E94DC23819580933903409138038E
:104B5000442379F030913903332359F025EB420394
:104B6000A0011124509338033203C0011124909303
:104B700039031D1624F40E94252480933A03809162
:104B80003A0387FF05C00E942524819580933A034C
:104B9000111624F40E94252480933B0380913B034B
:104BA00087FF05C00E942524819580933B03DF91F8
:104BB000CF911F910C944B259F3F09F0A6CFAECF0C
:104BC000DF91CF911F910895E7E3F3E085E0DF01E6
:104BD0001D928A95E9F710923603109235030895D5
:104BE000833081F128F4813059F08230D1F008957A
:104BF000853009F449C0B8F1863009F456C00895EB
:104C000080913403262F30E0280F311D2F3F3105CE
:104C100024F4680F6093340308958FEF8093340376
:104C2000089580910901262F30E0280F311D2F3F74
:104C3000310524F4680F6093090108958FEF809384
:104C40000901089580910801262F30E0280F311DB9
:104C50002F3F310524F4680F6093080108958FEF0A
:104C600080930801089580910701262F30E0280FD6
:104C7000311D2F3F310524F4680F6093070108951B
:104C80008FEF80930701089580910601262F30E071
:104C9000280F311D2F3F310524F4680F6093060162
:104CA00008958FEF80930601089580910501262FC6
:104CB00030E0280F311D2F3F310524F4680F609339
:104CC000050108958FEF809305010895833011F158
:104CD00028F4813049F0823091F00895853081F1D7
:104CE00020F18630C1F1089580913403681720F4D3
:104CF000861B8093340308951092340308958091A5
:104D00000901681720F4861B809309010895109209
:104D10000901089580910801681720F4861B80938B
:104D200008010895109208010895809107016817FD
:104D300020F4861B809307010895109207010895BF
:104D400080910601681720F4861B80930601089560
:104D500010920601089580910501681720F4861BC2
:104D60008093050108951092050108950F931F93F4
:104D7000873208F04DC08E3108F093C0803109F4BD
:104D80007DC008F5873009F46BC068F4863009F0FF
:104D9000A3C080913003817F8E7F8093300381E0B8
:104DA00080933D039AC08B3009F48FC08E3009F098
:104DB00093C08091300382FB222720F991E0922753
:104DC00090FB82F964C0863109F47FC088F4813198
:104DD00009F082C00E947A1B8091AC0387FB2227D6
:104DE00020F991E0922790FB87F98093AC036DC086
:104DF000893109F46AC08B3109F06EC080913003AB
:104E000081FB222720F991E0922790FB81F93FC096
:104E1000883309F45AC050F4893209F458C08533F4
:104E200009F455C0873209F452C056C0833409F4DE
:104E30004EC028F48A3308F44FC0895333C08834F5
:104E400009F04AC00E947A1B0FEF13ED20E30150D6
:104E500010402040E1F700C000000E94912335C0BF
:104E600080913003982F9095917090FB80F98093FA
:104E7000300391112AC0897F877F10C08091300351
:104E800083FB222720F991E0922790FB83F98093FE
:104E900030039923D1F080913003816080933003F7
:104EA00014C08D5141E050E060E070E08A019B0148
:104EB00004C0000F111F221F331F8A95D2F7C901AA
:104EC000B8010E94501F0E947A1B81E006C061E079
:104ED00070E080E090E0F5CF80E01F910F910895A1
:104EE00080E0089580E008958E518A3030F4E82FF4
:104EF000F0E0E354FE4F8081089580E00895CF9361
:104F0000C82F80913D03813079F018F08230E9F1AB
:104F100085C0E0910301F09104018081813169F045
:104F2000823209F07DC009C0E0910301F0910401D3
:104F30008081813111F0823261F48C2F0E947027C0
:104F4000811104C08C2F0E94B6261DC081E090E024
:104F50001AC08C2F0E947227811114C0C43179F0BD
:104F600048F4CB3079F0C03109F05EC082E0809324
:104F70003D0308C0C93219F0C83321F055C0109262
:104F80003D0352C081E0817051C0C93279F108F50A
:104F9000C43161F1A0F4C73009F044C01092340369
:104FA00084E180930901C09308018CE38093070199
:104FB00088E08093060188E28093050133C082EE89
:104FC0008C0F863078F58C2F0E94742780933C03D9
:104FD00029C0CE34E9F020F4CB3421F56AE013C0C7
:104FE000C13579F0C235F1F461E00DC080913C0328
:104FF000882319F010923C0315C081E080933D0393
:1050000015C061E006C080913C030E94F0250AC0F3
:105010006AE080913C030E94662604C010923D0322
:1050200080E004C081E002C080E0ADCFCF91089560
:1050300080915E0308950F931F93CF93DF9300D069
:105040001F92CDB7DEB78C010E94932A823011F0F7
:10505000843019F593E099831B830A839093E900C8
:105060008FEF9091E800815095FD06C095ED9A95DF
:10507000F1F700008111F5CF8091E80085FF0DC0A8
:1050800040E050E063E070E0CE0101960E94B02A5B
:105090008091E8008E778093E8000F900F900F903A
:1050A000DF91CF911F910F910895CF93DF9300D09F
:1050B0001F92CDB7DEB72091B203243031F522E044
:1050C0002983805891099B838A8383E08093E90038
:1050D0008FEF9091E800815095FD06C095ED9A956F
:1050E000F1F700008111F5CF8091E80085FF0DC038
:1050F00040E050E063E070E0CE0101960E94B02AEB
:105100008091E8008E778093E8000F900F900F90C9
:10511000DF91CF910895CF93DF93EC010E94932A02
:10512000823011F08430F9F482E08093E9009FEF3F
:105130008091E800915085FD06C085ED8A95F1F7D4
:1051400000009111F5CF8091E80085FF0CC040E090
:1051500050E065E070E0CE010E94B02A8091E80046
:105160008E778093E800DF91CF910895CF93DF93FE
:10517000EC010E94932A823019F0843009F047C074
:10518000809114018823E1F08091AC0387FF18C05F
:1051900084E08093E9008FEF9091E800815095FDC5
:1051A00006C095E19A95F1F700008111F5CF809145
:1051B000E80085FF2CC040E050E060E270E017C0DE
:1051C00081E08093E9008FEF9091E800815095FD98
:1051D00006C095ED9A95F1F700008111F5CF809109
:1051E000E80085FF14C040E050E068E070E0CE01C8
:1051F0000E94B02A8091E8008E778093E80080E2D8
:10520000FE01AEE3B3E001900D928A95E1F7DF91E4
:10521000CF9108958091B103811109C00E94452C5E
:105220000E94A22C8091E20084608093E2000895A5
:105230001092B1030895089508950C94FD2242E060
:1052400061EC81E00E94BF2B42E061EC82E00E94B1
:10525000BF2B42E061EC83E00E94BF2B42E261EC95
:1052600084E00C94BF2B8091B403833009F455C0C3
:1052700030F4813071F0823009F48EC008958A30A4
:1052800009F47AC08B3009F460C0893009F09CC001
:1052900020C08091B303813A09F096C08091E80064
:1052A000877F8093E8008091B7039091B803892BA2
:1052B00021F460E28EE393E003C060E080E090E0E0
:1052C00070E00E94FB2A8091E8008B778093E800D1
:1052D00008958091B303813209F076C08091B703BD
:1052E0009091B803009719F0039709F06DC0809171
:1052F000E800877F8093E8008091E80082FD05C088
:105300008091B2038111F8CF5FC08091F10080934A
:105310005E038091E8008B7753C08091B303813A9C
:1053200009F052C08091B7039091B803892B09F01E
:105330004BC08091E800877F8093E8008091E8006F
:1053400080FFFCCF8091140136C08091B30381327D
:10535000D9F58091B7039091B803892BA9F5809175
:10536000E800877F8093E8000E94F42B8091B503CA
:10537000809314010C947A1B8091B303813221F540
:105380008091E800877F8093E8000E94F42B809151
:10539000B60380935F0308958091B303813AA1F42B
:1053A0008091E800877F8093E8008091E80080FF8B
:1053B000FCCF80915F038093F1008091E8008E77AD
:1053C0008093E8000C94F42B089584B7877F84BF02
:1053D0000FB6F894A8958091600088618093600072
:1053E000109260000FBE80E880936100109261000F
:1053F0000E94AA150E94452C0E94A22C8091E200D6
:1054000084608093E20078940E94312F0E94AE1550
:105410008AE091E00E9456158091B203853069F4CC
:105420000E94BC228091B0038823B1F30E94E9223C
:10543000882391F30E949A2AEFCF0E94B6150E940A
:105440005914EACF0C94242A292F3327233031050D
:10545000C9F064F42130310581F02230310509F0C2
:1054600049C08DE690E02CE538E048C02132310596
:1054700021F12232310571F13DC082E190E029EC49
:1054800038E03CC099278130910571F02CF4892BCC
:1054900089F5E8E5F8E00DC08230910541F0039709
:1054A00049F5E2E2F8E005C0E0E4F8E002C0E8E235
:1054B000F8E0849190E09F0121C064307105D0F440
:1054C000660F771FFB01ED52FE4F2081318189E08D
:1054D00090E014C06430710568F4FB01EE0FFF1F0B
:1054E000E553FE4F20813181FB01E953FE4F80815E
:1054F00090E004C080E090E020E030E0FA013183E9
:10550000208308950895CF93C82F0E94822AC093C4
:105510006003CF9108958091B203843011F081E04F
:10552000089582E0089580916003811102C00C9477
:105530008B2A089580E189BD82E189BD09B400FE0E
:10554000FDCF8091D8008F7D8093D8008091E000BE
:1055500082608093E0008091E00081FDFCCF08959F
:10556000CF92DF92EF92FF920F931F93CF93DF932F
:10557000EC018B016A010E94132C811133C0C1140C
:10558000D10439F0F60180819181081B190BC80FF5
:10559000D91FE12CF12C0115110519F18091E800BA
:1055A00085FD16C08091E8008E778093E800C114D5
:1055B000D10449F0F60180819181E80EF91EF18253
:1055C000E08285E00FC00E94132C882321F30AC0DB
:1055D00089918093F10001501109FFEFEF1AFF0A42
:1055E000DACF80E0DF91CF911F910F91FF90EF9084
:1055F000DF90CF9008952091B9033091BA03261718
:10560000370748F06115710539F42091E8002E77CD
:105610002093E80001C0B90140E061157105A9F1CE
:105620002091B203222309F443C0253009F442C07B
:105630002091E80023FD40C02091E80022FD32C007
:105640002091E80020FFE9CF4091F3002091F20083
:1056500030E0342BFC01CF016115710559F0283081
:10566000310540F481918093F100615071092F5F01
:105670003F4FF1CF41E02830310509F040E0209163
:10568000E8002E772093E800C8CF4111C9CF0AC0A7
:105690008091B203882361F0853061F08091E80049
:1056A00083FD0AC08091E80082FFF2CF80E0089578
:1056B00082E0089583E0089581E008952091B90380
:1056C0003091BA032617370748F06115710539F490
:1056D0002091E8002E772093E80001C0B901FC0179
:1056E00020E06115710591F18091B203882309F4DE
:1056F00040C0853009F43FC08091E80083FD3DC083
:105700008091E80082FD2FC08091E80080FFE9CF02
:105710002091F3008091F20090E0922B61157105C9
:1057200059F08830910540F424912093F10031968E
:10573000615071090196F2CF21E0089709F020E04D
:105740008091E8008E778093E800CBCF2111CCCFF9
:105750000AC08091B203882361F0853061F08091A6
:10576000E80083FD0AC08091E80082FFF2CF80E06C
:10577000089582E0089583E0089581E00895982FC8
:10578000973058F59093E900981739F07091EC0034
:105790002091ED005091F00003C0242F762F50E0AF
:1057A00021FF19C03091EB003E7F3093EB00309128
:1057B000ED003D7F3093ED003091EB003160309390
:1057C000EB007093EC002093ED005093F0002091DB
:1057D000EE0027FF07C09F5FD3CF8F708093E90053
:1057E00081E0089580E008958091B30387FF11C0A0
:1057F0008091E80082FD05C08091B2038111F8CF4D
:1058000011C08091E8008B770BC08091B203882390
:1058100049F08091E80080FFF8CF8091E8008E7712
:105820008093E80008952091E4003091E50095E62A
:105830004091EC00842F817040FF22C08091E800ED
:1058400080FD1CC08091B203882391F0853091F0D7
:105850008091EB0085FD10C04091E4005091E5007F
:105860004217530729F39A01915011F784E00895E4
:1058700082E0089583E0089581E0089580E008952E
:105880004091E80042FFDECF08950E94B32C0E94B1
:10589000BB2CE0EEF0E0808181608083E8EDF0E0F9
:1058A00080818F77808319BCA7EDB0E08C918E7FCB
:1058B0008C9380818F7E80831092B10308950F9323
:1058C0001F93CF93DF930E94B32C0E94BB2CC8ED93
:1058D000D0E088818F7788838881806888838881F9
:1058E0008F7D888319BC1092B2031092AE03109280
:1058F000B0031092AF0300EE10E0F80180818B7FBF
:10590000808388818160888342E060E080E00E943B
:10591000BF2BE1EEF0E080818E7F8083E2EEF0E04D
:10592000808181608083808188608083F8018081AC
:105930008E7F8083888180618883DF91CF911F91E2
:105940000F910895E8EDF0E080818F7E8083E7ED90
:10595000F0E080818160808384E082BF81E0809379
:10596000B1030C945F2CE8EDF0E080818E7F8083A2
:105970001092E20008951092DA001092E10008956A
:105980001F920F920FB60F9211242F933F934F93B4
:105990005F936F937F938F939F93AF93BF93EF9397
:1059A000FF938091E10082FF0BC08091E20082FFB3
:1059B00007C08091E1008B7F8093E1000E94302F2F
:1059C0008091DA0080FF1FC08091D80080FF1BC04B
:1059D0008091DA008E7F8093DA008091D90080FF79
:1059E0000DC080E189BD82E189BD09B400FEFDCF13
:1059F00081E08093B2030E940A2905C019BC10926D
:105A0000B2030E9418298091E10080FF19C08091A3
:105A1000E20080FF15C08091E2008E7F8093E2005B
:105A20008091E20080618093E2008091D8008062E2
:105A30008093D80019BC85E08093B2030E941C2992
:105A40008091E10084FF30C08091E20084FF2CC08F
:105A500080E189BD82E189BD09B400FEFDCF80915E
:105A6000D8008F7D8093D8008091E1008F7E809355
:105A7000E1008091E2008F7E8093E2008091E2005D
:105A800081608093E2008091AE03882311F084E06E
:105A900007C08091E30087FD02C081E001C083E080
:105AA0008093B2030E941D298091E10083FF29C0E9
:105AB0008091E20083FF25C08091E100877F809381
:105AC000E10082E08093B2031092AE038091E10086
:105AD0008E7F8093E1008091E2008E7F8093E200D0
